:100000000C9446000C9465000C9465000C946500FB
:100010000C9465000C9465000C9465000C946500CC
:100020000C9465000C9465000C9465000C946500BC
:100030000C9465000C9465000C9465000C946500AC
:100040000C9465000C9465000C9465000C9465009C
:100050000C9465000C9465000C9465000C9465008C
:100060000C9465000C9465000C9465000C9465007C
:100070000C9465000C9465000C9465000C9465006C
:100080000C9465000C9465000C94650011241FBE4F
:10009000CFEFD0E4DEBFCDBF11E0A0E0B1E0EEEBEA
:1000A000F2E000E00BBF02C007900D92AE30B10746
:1000B000D9F721E0AEE0B1E001C01D92A031B20756
:1000C000E1F70E9444010C945D010C940000CF9371
:1000D000DF9300D01F92CDB7DEB789837B836A831D
:1000E00089818A3031F48A819B81BC018DE00E9434
:1000F000670080EC90E0FC018081882F90E08072A6
:100100009927892BB1F386EC90E02981FC012083AB
:1001100080E090E00F900F900F90DF91CF910895C5
:10012000CF93DF93CDB7DEB780910E0190910F0191
:100130008230910529F18330910528F4009769F008
:10014000019791F05FC084309105D9F18430910519
:1001500008F1059709F43FC055C081E090E0909305
:100160000F0180930E0153C080E290E021E0FC017A
:10017000208382E090E090930F0180930E0147C0AE
:1001800080E290E0FC01108282E090E090930F0109
:1001900080930E0180E290E0FC018081882F90E046
:1001A00081709927892B39F084E090E090930F01BA
:1001B00080930E0106C083E090E090930F0180933E
:1001C0000E0180E290E0FC01808185E090E0909358
:1001D0000F0180930E0180E290E0FC018081882F66
:1001E00090E081709927892B39F082E090E090931C
:1001F0000F0180930E0106C085E090E090930F01FF
:1002000080930E0110920F0110920E010000809158
:100210000E0190910F0182309105E9F08330910534
:1002200028F4009761F0019781F021C08430910596
:10023000C1F08430910508F1059709F118C085E2F5
:1002400090E021E0FC0120831BC085E290E021E0EA
:10025000FC01208315C085E290E022E0FC012083B0
:100260000FC085E290E021E0FC01208309C085E217
:1002700090E021E0FC01208303C0000001C00000E9
:100280000000DF91CF910895CF93DF93CDB7DEB714
:1002900081E290E0FC01108282E290E02FEFFC010D
:1002A000208384E290E02FEFFC01208385E290E040
:0E02B000FC0110820E949000FDCFF894FFCF59
:0E02BE000000000200000000670000000000C9
:00000001FF
